{
	"abi": [
		{
			"type": "constructor",
			"inputs": [
				{
					"name": "_pool",
					"type": "address",
					"internalType": "address"
				}
			],
			"stateMutability": "nonpayable"
		},
		{
			"type": "function",
			"name": "PERMIT2",
			"inputs": [],
			"outputs": [
				{
					"name": "",
					"type": "address",
					"internalType": "address"
				}
			],
			"stateMutability": "view"
		},
		{
			"type": "function",
			"name": "permit2",
			"inputs": [],
			"outputs": [
				{
					"name": "",
					"type": "address",
					"internalType": "contract ISignatureTransfer"
				}
			],
			"stateMutability": "view"
		},
		{
			"type": "function",
			"name": "pool",
			"inputs": [],
			"outputs": [
				{
					"name": "",
					"type": "address",
					"internalType": "contract ICurvePMM"
				}
			],
			"stateMutability": "view"
		},
		{
			"type": "function",
			"name": "quoteExactIn",
			"inputs": [
				{
					"name": "params",
					"type": "tuple",
					"internalType": "struct ICurvePMMPeriphery.QuoteParams",
					"components": [
						{
							"name": "tokenIn",
							"type": "address",
							"internalType": "address"
						},
						{
							"name": "tokenOut",
							"type": "address",
							"internalType": "address"
						},
						{
							"name": "amountIn",
							"type": "uint256",
							"internalType": "uint256"
						}
					]
				}
			],
			"outputs": [
				{
					"name": "amountOut",
					"type": "uint256",
					"internalType": "uint256"
				}
			],
			"stateMutability": "view"
		},
		{
			"type": "function",
			"name": "swapExactIn",
			"inputs": [
				{
					"name": "params",
					"type": "tuple",
					"internalType": "struct ICurvePMMPeriphery.ExactInputParams",
					"components": [
						{
							"name": "tokenIn",
							"type": "address",
							"internalType": "address"
						},
						{
							"name": "tokenOut",
							"type": "address",
							"internalType": "address"
						},
						{
							"name": "recipient",
							"type": "address",
							"internalType": "address"
						},
						{
							"name": "amountIn",
							"type": "uint256",
							"internalType": "uint256"
						},
						{
							"name": "amountOutMinimum",
							"type": "uint256",
							"internalType": "uint256"
						}
					]
				},
				{
					"name": "permit",
					"type": "tuple",
					"internalType": "struct ISignatureTransfer.PermitTransferFrom",
					"components": [
						{
							"name": "permitted",
							"type": "tuple",
							"internalType": "struct ISignatureTransfer.TokenPermissions",
							"components": [
								{
									"name": "token",
									"type": "address",
									"internalType": "address"
								},
								{
									"name": "amount",
									"type": "uint256",
									"internalType": "uint256"
								}
							]
						},
						{
							"name": "nonce",
							"type": "uint256",
							"internalType": "uint256"
						},
						{
							"name": "deadline",
							"type": "uint256",
							"internalType": "uint256"
						}
					]
				},
				{
					"name": "signature",
					"type": "bytes",
					"internalType": "bytes"
				}
			],
			"outputs": [
				{
					"name": "amountOut",
					"type": "uint256",
					"internalType": "uint256"
				}
			],
			"stateMutability": "nonpayable"
		},
		{
			"type": "function",
			"name": "swapExactInNative",
			"inputs": [
				{
					"name": "params",
					"type": "tuple",
					"internalType": "struct ICurvePMMPeriphery.ExactInputNativeParams",
					"components": [
						{
							"name": "tokenOut",
							"type": "address",
							"internalType": "address"
						},
						{
							"name": "recipient",
							"type": "address",
							"internalType": "address"
						},
						{
							"name": "deadline",
							"type": "uint256",
							"internalType": "uint256"
						},
						{
							"name": "amountOutMinimum",
							"type": "uint256",
							"internalType": "uint256"
						}
					]
				}
			],
			"outputs": [
				{
					"name": "amountOut",
					"type": "uint256",
					"internalType": "uint256"
				}
			],
			"stateMutability": "payable"
		},
		{
			"type": "event",
			"name": "Swap",
			"inputs": [
				{
					"name": "sender",
					"type": "address",
					"indexed": true,
					"internalType": "address"
				},
				{
					"name": "recipient",
					"type": "address",
					"indexed": true,
					"internalType": "address"
				},
				{
					"name": "tokenIn",
					"type": "address",
					"indexed": false,
					"internalType": "address"
				},
				{
					"name": "tokenOut",
					"type": "address",
					"indexed": false,
					"internalType": "address"
				},
				{
					"name": "amountIn",
					"type": "uint256",
					"indexed": false,
					"internalType": "uint256"
				},
				{
					"name": "amountOut",
					"type": "uint256",
					"indexed": false,
					"internalType": "uint256"
				}
			],
			"anonymous": false
		},
		{
			"type": "error",
			"name": "DeadlineExpired",
			"inputs": [
				{
					"name": "deadline",
					"type": "uint256",
					"internalType": "uint256"
				}
			]
		},
		{
			"type": "error",
			"name": "InsufficientOutput",
			"inputs": [
				{
					"name": "amountOut",
					"type": "uint256",
					"internalType": "uint256"
				},
				{
					"name": "amountOutMinimum",
					"type": "uint256",
					"internalType": "uint256"
				}
			]
		},
		{
			"type": "error",
			"name": "InvalidToken",
			"inputs": [
				{
					"name": "token",
					"type": "address",
					"internalType": "address"
				}
			]
		},
		{
			"type": "error",
			"name": "NativeAmountMismatch",
			"inputs": [
				{
					"name": "msgValue",
					"type": "uint256",
					"internalType": "uint256"
				},
				{
					"name": "amountIn",
					"type": "uint256",
					"internalType": "uint256"
				}
			]
		},
		{
			"type": "error",
			"name": "NativeNotSupported",
			"inputs": []
		},
		{
			"type": "error",
			"name": "PermitMismatch",
			"inputs": []
		},
		{
			"type": "error",
			"name": "SafeERC20FailedOperation",
			"inputs": [
				{
					"name": "token",
					"type": "address",
					"internalType": "address"
				}
			]
		}
	],
	"bytecode": {
		"object": "0x60c06040526e22d473030f116ddee9f6b43ac78ba360a052348015610022575f5ffd5b506040516113dc3803806113dc8339810160408190526100419161024c565b6001600160a01b03811660808190526040805163c1599bd960e01b815290515f929163c1599bd99160048083019260209291908290030181865afa15801561008b573d5f5f3e3d5ffd5b505050506040513d601f19601f820116820180604052508101906100af919061024c565b90505f6080516001600160a01b03166345b3fe426040518163ffffffff1660e01b8152600401602060405180830381865afa1580156100f0573d5f5f3e3d5ffd5b505050506040513d601f19601f82011682018060405250810190610114919061024c565b90506001600160a01b0382161561013a5761013a6001600160a01b038316845f19610166565b6001600160a01b0381161561015e5761015e6001600160a01b038216845f19610166565b505050610279565b6101728383835f6101ea565b6101e55761018383835f60016101ea565b6101b057604051635274afe760e01b81526001600160a01b03841660048201526024015b60405180910390fd5b6101bd83838360016101ea565b6101e557604051635274afe760e01b81526001600160a01b03841660048201526024016101a7565b505050565b60405163095ea7b360e01b5f8181526001600160a01b038616600452602485905291602083604481808b5af1925060015f51148316610240578383151615610234573d5f823e3d81fd5b5f873b113d1516831692505b60405250949350505050565b5f6020828403121561025c575f5ffd5b81516001600160a01b0381168114610272575f5ffd5b9392505050565b60805160a0516110fe6102de5f395f81816078015261049701525f818160d5015281816101d901528181610294015281816105330152818161061c0152818161082d0152818161090b015281816109fc01528181610b940152610c2401526110fe5ff3fe608060405260043610610063575f3560e01c80636afdd850116100415780636afdd850146101245780638f38e31a14610146578063e6d9a35a14610165575f5ffd5b806312261ee71461006757806316f0115b146100c457806363de84c3146100f7575b5f5ffd5b348015610072575f5ffd5b5061009a7f000000000000000000000000000000000000000000000000000000000000000081565b60405173ffffffffffffffffffffffffffffffffffffffff90911681526020015b60405180910390f35b3480156100cf575f5ffd5b5061009a7f000000000000000000000000000000000000000000000000000000000000000081565b348015610102575f5ffd5b50610116610111366004610e76565b610178565b6040519081526020016100bb565b34801561012f575f5ffd5b5061009a6e22d473030f116ddee9f6b43ac78ba381565b348015610151575f5ffd5b50610116610160366004610ea5565b6102d8565b610116610173366004610f39565b6107e5565b5f8061019f61018a6020850185610f7e565b61019a6040860160208701610f7e565b610b90565b9050801561026257604080517f17d37d080000000000000000000000000000000000000000000000000000000081529084013560048201527f000000000000000000000000000000000000000000000000000000000000000073ffffffffffffffffffffffffffffffffffffffff16906317d37d08906024015b606060405180830381865afa158015610234573d5f5f3e3d5ffd5b505050506040513d601f19601f820116820180604052508101906102589190610f99565b5090949350505050565b604080517fe56d5e000000000000000000000000000000000000000000000000000000000081529084013560048201527f000000000000000000000000000000000000000000000000000000000000000073ffffffffffffffffffffffffffffffffffffffff169063e56d5e0090602401610219565b5f806102e76020870187610f7e565b73ffffffffffffffffffffffffffffffffffffffff160361035f5761030f6020860186610f7e565b6040517f961c9a4f00000000000000000000000000000000000000000000000000000000815273ffffffffffffffffffffffffffffffffffffffff90911660048201526024015b60405180910390fd5b83606001354211156103a3576040517fbc3088ef00000000000000000000000000000000000000000000000000000000815260608501356004820152602401610356565b6103b06020860186610f7e565b73ffffffffffffffffffffffffffffffffffffffff166103d36020860186610f7e565b73ffffffffffffffffffffffffffffffffffffffff161415806103fe57506020840135606086013514155b15610435576040517fceaf57ba00000000000000000000000000000000000000000000000000000000815260040160405180910390fd5b5f6104566104466020880188610f7e565b61019a6040890160208a01610f7e565b6040805180820182523081526060890135602082015290517f30f28b7a000000000000000000000000000000000000000000000000000000008152919250907f000000000000000000000000000000000000000000000000000000000000000073ffffffffffffffffffffffffffffffffffffffff16906330f28b7a906104e9908990859033908b908b90600401611018565b5f604051808303815f87803b158015610500575f5ffd5b505af1158015610512573d5f5f3e3d5ffd5b5050505081156106055773ffffffffffffffffffffffffffffffffffffffff7f00000000000000000000000000000000000000000000000000000000000000001663653bce0f61056860608a0160408b01610f7e565b6040517fffffffff0000000000000000000000000000000000000000000000000000000060e084901b16815273ffffffffffffffffffffffffffffffffffffffff909116600482015260608a013560248201526044016020604051808303815f875af11580156105da573d5f5f3e3d5ffd5b505050506040513d601f19601f820116820180604052508101906105fe9190611096565b92506106ea565b73ffffffffffffffffffffffffffffffffffffffff7f00000000000000000000000000000000000000000000000000000000000000001663a71d317e61065160608a0160408b01610f7e565b6040517fffffffff0000000000000000000000000000000000000000000000000000000060e084901b16815273ffffffffffffffffffffffffffffffffffffffff909116600482015260608a013560248201526044016020604051808303815f875af11580156106c3573d5f5f3e3d5ffd5b505050506040513d601f19601f820116820180604052508101906106e79190611096565b92505b8660800135831015610735576040517f2c19b8b80000000000000000000000000000000000000000000000000000000081526004810184905260808801356024820152604401610356565b6107456060880160408901610f7e565b73ffffffffffffffffffffffffffffffffffffffff16337f20efd6d5195b7b50273f01cd79a27989255356f9f13293edc53ee142accfdb7561078a60208b018b610f7e565b61079a60408c0160208d01610f7e565b6040805173ffffffffffffffffffffffffffffffffffffffff938416815291909216602082015260608c81013582840152810188905290519081900360800190a35050949350505050565b5f816040013542111561082a57604080517fbc3088ef000000000000000000000000000000000000000000000000000000008152908301356004820152602401610356565b5f7f000000000000000000000000000000000000000000000000000000000000000073ffffffffffffffffffffffffffffffffffffffff1663c1599bd96040518163ffffffff1660e01b8152600401602060405180830381865afa158015610894573d5f5f3e3d5ffd5b505050506040513d601f19601f820116820180604052508101906108b891906110ad565b905073ffffffffffffffffffffffffffffffffffffffff811615610908576040517f0a7287b500000000000000000000000000000000000000000000000000000000815260040160405180910390fd5b5f7f000000000000000000000000000000000000000000000000000000000000000073ffffffffffffffffffffffffffffffffffffffff166345b3fe426040518163ffffffff1660e01b8152600401602060405180830381865afa158015610972573d5f5f3e3d5ffd5b505050506040513d601f19601f8201168201806040525081019061099691906110ad565b905073ffffffffffffffffffffffffffffffffffffffff81166109bc6020860186610f7e565b73ffffffffffffffffffffffffffffffffffffffff16146109e45761030f6020850185610f7e565b3473ffffffffffffffffffffffffffffffffffffffff7f00000000000000000000000000000000000000000000000000000000000000001663653bce0f82610a326040890160208a01610f7e565b6040517fffffffff0000000000000000000000000000000000000000000000000000000060e085901b16815273ffffffffffffffffffffffffffffffffffffffff90911660048201526024810185905260440160206040518083038185885af1158015610aa1573d5f5f3e3d5ffd5b50505050506040513d601f19601f82011682018060405250810190610ac69190611096565b93508460600135841015610b13576040517f2c19b8b80000000000000000000000000000000000000000000000000000000081526004810185905260608601356024820152604401610356565b610b236040860160208701610f7e565b6040805173ffffffffffffffffffffffffffffffffffffffff868116825285811660208301529181018490526060810187905291169033907f20efd6d5195b7b50273f01cd79a27989255356f9f13293edc53ee142accfdb759060800160405180910390a3505050919050565b5f5f7f000000000000000000000000000000000000000000000000000000000000000073ffffffffffffffffffffffffffffffffffffffff1663c1599bd96040518163ffffffff1660e01b8152600401602060405180830381865afa158015610bfb573d5f5f3e3d5ffd5b505050506040513d601f19601f82011682018060405250810190610c1f91906110ad565b90505f7f000000000000000000000000000000000000000000000000000000000000000073ffffffffffffffffffffffffffffffffffffffff166345b3fe426040518163ffffffff1660e01b8152600401602060405180830381865afa158015610c8b573d5f5f3e3d5ffd5b505050506040513d601f19601f82011682018060405250810190610caf91906110ad565b90508173ffffffffffffffffffffffffffffffffffffffff168573ffffffffffffffffffffffffffffffffffffffff1603610d6c578073ffffffffffffffffffffffffffffffffffffffff168473ffffffffffffffffffffffffffffffffffffffff1614610d61576040517f961c9a4f00000000000000000000000000000000000000000000000000000000815273ffffffffffffffffffffffffffffffffffffffff85166004820152602401610356565b600192505050610e70565b8073ffffffffffffffffffffffffffffffffffffffff168573ffffffffffffffffffffffffffffffffffffffff1603610e26578173ffffffffffffffffffffffffffffffffffffffff168473ffffffffffffffffffffffffffffffffffffffff1614610e1c576040517f961c9a4f00000000000000000000000000000000000000000000000000000000815273ffffffffffffffffffffffffffffffffffffffff85166004820152602401610356565b5f92505050610e70565b6040517f961c9a4f00000000000000000000000000000000000000000000000000000000815273ffffffffffffffffffffffffffffffffffffffff86166004820152602401610356565b92915050565b5f6060828403128015610e87575f5ffd5b509092915050565b5f60808284031215610e9f575f5ffd5b50919050565b5f5f5f5f848603610140811215610eba575f5ffd5b60a0811215610ec7575f5ffd5b50849350610ed88660a08701610e8f565b925061012085013567ffffffffffffffff811115610ef4575f5ffd5b8501601f81018713610f04575f5ffd5b803567ffffffffffffffff811115610f1a575f5ffd5b876020828401011115610f2b575f5ffd5b949793965060200194505050565b5f60808284031215610f49575f5ffd5b610f538383610e8f565b9392505050565b73ffffffffffffffffffffffffffffffffffffffff81168114610f7b575f5ffd5b50565b5f60208284031215610f8e575f5ffd5b8135610f5381610f5a565b5f5f5f60608486031215610fab575f5ffd5b83516020850151909350610fbe81610f5a565b6040949094015192959394509192915050565b81835281816020850137505f602082840101525f60207fffffffffffffffffffffffffffffffffffffffffffffffffffffffffffffffe0601f840116840101905092915050565b5f863561102481610f5a565b73ffffffffffffffffffffffffffffffffffffffff9081168352602088810135818501526040808a0135908501526060808a01359085015287518216608085015287015160a0840152851660c083015261010060e0830181905261108b9083018486610fd1565b979650505050505050565b5f602082840312156110a6575f5ffd5b5051919050565b5f602082840312156110bd575f5ffd5b8151610f5381610f5a56fea26469706673582212207944f682a02901e392f89a1b11b5eec14370268809b9b63bc83199b3ae40686a64736f6c634300081f0033",
		"linkReferences": {}
	},
	"methodIdentifiers": {
		"PERMIT2()": "6afdd850",
		"permit2()": "12261ee7",
		"pool()": "16f0115b",
		"quoteExactIn((address,address,uint256))": "63de84c3",
		"swapExactIn((address,address,address,uint256,uint256),((address,uint256),uint256,uint256),bytes)": "8f38e31a",
		"swapExactInNative((address,address,uint256,uint256))": "e6d9a35a"
	},
	"id": 66
}